{
  "contractName": "vote",
  "abi": [
    {
      "inputs": [
        {
          "internalType": "uint256",
          "name": "",
          "type": "uint256"
        }
      ],
      "name": "arr",
      "outputs": [
        {
          "internalType": "uint256",
          "name": "",
          "type": "uint256"
        }
      ],
      "stateMutability": "view",
      "type": "function",
      "constant": true
    },
    {
      "inputs": [
        {
          "internalType": "uint256",
          "name": "index",
          "type": "uint256"
        }
      ],
      "name": "giveVote",
      "outputs": [],
      "stateMutability": "nonpayable",
      "type": "function"
    },
    {
      "inputs": [
        {
          "internalType": "uint256",
          "name": "index",
          "type": "uint256"
        }
      ],
      "name": "returnVote",
      "outputs": [
        {
          "internalType": "uint256",
          "name": "",
          "type": "uint256"
        }
      ],
      "stateMutability": "view",
      "type": "function",
      "constant": true
    },
    {
      "inputs": [],
      "name": "getWinner",
      "outputs": [
        {
          "internalType": "uint256",
          "name": "",
          "type": "uint256"
        }
      ],
      "stateMutability": "view",
      "type": "function",
      "constant": true
    }
  ],
  "bytecode": "0x60806040526040518060600160405280600060ff168152602001600060ff168152602001600060ff16815250600090600361003b92919061004e565b5034801561004857600080fd5b506100b0565b8260038101928215610082579160200282015b82811115610081578251829060ff16905591602001919060010190610061565b5b50905061008f9190610093565b5090565b5b808211156100ac576000816000905550600101610094565b5090565b610329806100bf6000396000f3fe608060405234801561001057600080fd5b506004361061004c5760003560e01c80631b2b67c71461005157806371e5ee5f146100815780637f178f2e146100b15780638e7ea5b2146100cd575b600080fd5b61006b600480360381019061006691906101f6565b6100eb565b6040516100789190610232565b60405180910390f35b61009b600480360381019061009691906101f6565b610109565b6040516100a89190610232565b60405180910390f35b6100cb60048036038101906100c691906101f6565b610124565b005b6100d5610152565b6040516100e29190610232565b60405180910390f35b6000808260038110610100576100ff61024d565b5b01549050919050565b6000816003811061011957600080fd5b016000915090505481565b600081600381106101385761013761024d565b5b01600081548092919061014a906102ab565b919050555050565b600080600090506000805b60038110156101b257826000826003811061017b5761017a61024d565b5b0154111561019f57600081600381106101975761019661024d565b5b015492508091505b80806101aa906102ab565b91505061015d565b50809250505090565b600080fd5b6000819050919050565b6101d3816101c0565b81146101de57600080fd5b50565b6000813590506101f0816101ca565b92915050565b60006020828403121561020c5761020b6101bb565b5b600061021a848285016101e1565b91505092915050565b61022c816101c0565b82525050565b60006020820190506102476000830184610223565b92915050565b7f4e487b7100000000000000000000000000000000000000000000000000000000600052603260045260246000fd5b7f4e487b7100000000000000000000000000000000000000000000000000000000600052601160045260246000fd5b60006102b6826101c0565b91507fffffffffffffffffffffffffffffffffffffffffffffffffffffffffffffffff82036102e8576102e761027c565b5b60018201905091905056fea264697066735822122070d61d94f1e0cdf7c45bd499fa1e48984a65b7cfd5ac7579cbe8c4dfea2b712d64736f6c63430008110033",
  "immutableReferences": {},
  "source": "//SPDX-License-Identifier: UNLICENSED\r\npragma solidity ^0.8.6;\r\n\r\ncontract vote{\r\n    uint[3] public arr = [0,0,0];   \r\n\r\n    function giveVote(uint index) public{\r\n        arr[index]++;\r\n    }\r\n\r\n    function returnVote(uint index) public view returns(uint){\r\n        return arr[index];\r\n    }\r\n    function getWinner() public view returns(uint){\r\n        uint maxi = 0;\r\n        uint ind = 0;\r\n        for(uint i = 0; i < arr.length; i++){\r\n            if(arr[i]>maxi){\r\n                maxi = arr[i];\r\n                ind = i;\r\n            }\r\n        }\r\n        return ind;\r\n    }\r\n\r\n}",
  "sourcePath": "P:\\Blockchain\\Voting System\\Server\\contracts\\vote.sol",
  "compiler": {
    "name": "solc",
    "version": "0.8.17+commit.8df45f5f.Emscripten.clang"
  },
  "schemaVersion": "3.4.11",
  "updatedAt": "2023-01-14T13:14:33.825Z",
  "networkType": "ethereum",
  "devdoc": {
    "kind": "dev",
    "methods": {},
    "version": 1
  },
  "userdoc": {
    "kind": "user",
    "methods": {},
    "version": 1
  }
}